:020000040800F2
:10000000805B00249D03000891880008A9800008F7
:1000100089880008B106000829C80008000000000F
:10002000000000000000000000000000018B00083C
:10003000C10B000800000000A9880008098B000817
:10004000B7030008B7030008B7030008B7030008A8
:10005000B7030008B7030008B7030008B703000898
:10006000B7030008B7030008B7030008B703000888
:1000700041070008510700086107000871070008E0
:10008000B7030008B7030008B7030008010C000815
:10009000210C0008110C0008B7030008B703000882
:1000A000B7030008B7030008B7030008B703000848
:1000B000B7030008B7030008918C0008B7030008D5
:1000C000B7030008B7030008B7030008B703000828
:1000D000B703000841A00008B7030008B7030008F1
:1000E000C90B0008B703000800000000B7030008B0
:1000F000B7030008B7030008B7030008B7030008F8
:10010000B7030008B7030008A18C0008B703000874
:10011000B7030008F98E0008B7030008B70300080A
:1001200081070008B7030008B7030008B7030008F9
:10013000B7030008B7030008B7030008B7030008B7
:1001400000000000000000000000000000000000AF
:10015000B7030008B7030008B7030008B703000897
:10016000B7030008B7030008B7030008B703000887
:10017000B703000899880008B703000800000000D2
:10018000B7030008B7030008B7030008B703000867
:10019000B7030008B7030008B7030008B703000857
:1001A000B7030008B7030008B70300080000000009
:1001B000B7030008B7030008B7030008B703000837
:1001C000B7030008B70300080000000000000000AB
:1001D0000000000000000000B7030008000000005D
:1001E000000000000000000000000000000000000F
:1001F0000000000000000000B7030008B70300087B
:10020000B7030008B703000800000000B7030008A8
:10021000B7030008B7030008B7030008B7030008D6
:10022000B703000800000000B7030008000000004A
:10023000B7030008B703000800000000B703000878
:10024000B7030008B7030008B7030008B7030008A6
:10025000B7030008B7030008B7030008B703000896
:10026000B7030008B7030008B7030008B703000886
:10027000B7030008B7030008B70300080000000038
:10028000B7030008B7030008B7030008B703000866
:1002900000000000B7030008B703000800000000DA
:1002A00000000000B7030008B7030008B703000808
:1002B00031A00008B7030008B7030008310C00089C
:1002C000B7030008B7030008B703000800F002F8FE
:1002D00000F054F814A696E8000CB244B344DA4592
:1002E00001D100F04BF8BAE80F000FA696E83000F5
:1002F000A5EB040504EB0607AAEB0704A7F1010729
:100300004FEA15154FEA3414A4F10104AC4201D3AD
:1003100000F034F813F0010F18BFFB1A43F001038B
:1003200000F001F8DBE7184760EF000080EF000005
:10033000103A24BF78C878C1FAD8520724BF30C811
:1003400030C144BF04680C60704700007047000073
:100350000023002400250026103A28BF78C1FBD8CE
:10036000520728BF30C148BF0B6070471FB50EF061
:10037000F0FA00F04DF91FBD10B510BD00F05EF9A8
:100380001146FFF7F3FF0EF0C3FA00F07CF903B457
:10039000FFF7F2FF03BC00F083F900000948804733
:1003A00009480047FEE7FEE7FEE7FEE7FEE7FEE757
:1003B000FEE7FEE7FEE7FEE704480549054A064B6F
:1003C00070470000E18B0008CD0200088037002450
:1003D000805B0024803B0024803B002453EA020C15
:1003E00000F069802DE9F04B4FF00006002B1FBF95
:1003F000B3FA83F503FA05F424FA05F65E4012BF5A
:100400001643B2FA82F502FA05F4C5F120051EBFC3
:1004100022FA05FC44EA0C04203556EA044C4FEA63
:10042000144418BF641C4FF000084FF000099042BC
:1004300071EB030C39D3002919BFB1FA81F701FA26
:1004400007F6B0FA80F700FA07F6C7F120071EBFDB
:1004500020FA07FC46EA0C062037B6FBF4FCA7EBB3
:100460000507103F07F01F0BCBF120062CFA06F60C
:100470000CFA0BFB44BFB3460026202FA4BF5E46F8
:100480004FF0000B5BEA060C08BF4FF0010B19EBB5
:100490000B0948EB0608ABFB027C06FB02CC0BFB0E
:1004A00003CCC01B71EB0C01C1E70B460246414671
:1004B0004846BDE8F08B13B5084318BF4FF0FF3036
:1004C0000146AFF30080BDE81C407047032A40F2AC
:1004D000308010F0030C00F0158011F8013BBCF1E6
:1004E000020F624498BF11F801CB00F8013B38BFFE
:1004F00011F8013BA2F1040298BF00F801CB38BF0C
:1005000000F8013B11F0030300F02580083AC0F029
:10051000088051F8043B083A51F804CBA0E80810D1
:10052000F5E7121D5CBF51F8043B40F8043BAFF304
:100530000080D20724BF11F8013B11F801CB48BF5E
:1005400011F8012B24BF00F8013B00F801CB48BF94
:1005500000F8012B704710B5203AC0F00B80B1E8CD
:100560001850A0E81850B1E81850A0E81850203AE8
:10057000BFF4F5AF5FEA027C24BFB1E81850A0E8F1
:10058000185044BF18C918C0BDE810405FEA827C0B
:1005900024BF51F8043B40F8043B08BF7047D20722
:1005A00028BF31F8023B48BF11F8012B28BF20F8C3
:1005B000023B48BF00F8012B70474FF0000200B526
:1005C000134694469646203922BFA0E80C50A0E876
:1005D0000C50B1F12001BFF4F7AF090728BFA0E824
:1005E0000C5048BF0CC05DF804EB890028BF40F8F0
:1005F000042B08BF704748BF20F8022B11F0804F32
:1006000018BF00F8012B7047704770477047000013
:1006100008487CB57844009007487844009C05461B
:10062000019004E02046016808448047241DAC4244
:10063000F8D17CBD90EC00008EEC0000754600F017
:100640002BF8AE4605006946534620F00700854664
:1006500018B020B5FFF7B0FEBDE820404FF000060F
:100660004FF000074FF000084FF0000BAC46ACE82D
:10067000C009ACE8C009ACE8C009ACE8C00921F089
:1006800007018D46704710B50446AFF30080204641
:10069000BDE81040FFF77BBE004870470001002412
:1006A00001491820ABBEFEE726000200704700009B
:1006B000FEE700000000000000207047000000007E
:1006C000002070470000000010B542F6940441F687
:1006D0002421C2F20044C2F200410022204609F067
:1006E00087FE41F224212046C2F2004109F070FE4B
:1006F000002010BD0000000070B542F694060546CB
:10070000C2F200460C463046294609F061FE3046EA
:1007100009F03AFE41F2BC162268C2F200462946B0
:100720003046FFF7D3FE726E2168284690470020BE
:100730002168A6F8601070BD00207047000000001E
:1007400042F6D840C2F2004000F06EBE0000000049
:1007500042F65050C2F2004000F066BE00000000B9
:1007600042F6E830C2F2004000F05EBE0000000039
:1007700042F66040C2F2004000F056BE00000000A9
:1007800042F67030C2F2004000F04EBE00000000A1
:1007900040F20F42D0F800C0C4F20202944511DCCE
:1007A0006F22C4F20202944522DC3F22C4F202020C
:1007B000944539DC1022C4F2020294455AD0282212
:1007C00054E000BF40F26F42C4F2020294451BDCC9
:1007D00040F23F42C4F2020294452DDC40F2104246
:1007E000C4F20202944545D040F228423EE000BFE8
:1007F0009F22C4F20202944528DC7022C4F2020255
:10080000944537D0882231E040F29F42C4F2020280
:10081000944523DC40F27042C4F20202944529D090
:1008200040F2884222E000BF4022C4F20202944516
:1008300020D058221AE000BF40F24042C4F2020227
:10084000944517D040F2584210E000BFA022C4F2F5
:10085000020294450ED0B82208E000BF40F2B84230
:10086000C4F20202944505D040F2A042C4F2020252
:10087000944517D10CF0F8024AF6AB23103ACAF6A9
:10088000AA23A2FB03310AA35F2AC1F302115B5C16
:1008900040F2FF312CEA0101C36588BF0431816554
:1008A000084670472CF0FF0181650846704700BF7D
:1008B000000610160006101670B540F26F44D0F80E
:1008C00000C0C4F20204D0F858E0A4451ADC9F2509
:1008D000C4F20205AC4533DC5725C4F20205AC4531
:1008E0005ADC1025C4F20205AC4500F0988028259A
:1008F000C4F20205AC4500F092804025C4F2020526
:100900008AE000BF45F22F45C5F60205AC452DDC57
:1009100040F2B745C4F20205AC454BDC40F27045ED
:10092000C4F20205AC457AD040F28845C4F2020513
:10093000AC4574D040F2A045C4F202056CE000BFA3
:1009400040F22745C4F20205AC4543DCA025C4F2C1
:100950000205AC4563D0B825C4F20205AC455ED0B3
:1009600040F21045C4F2020556E000BF45F26B4567
:10097000C5F60205AC453FDC45F23045C5F602053B
:10098000AC454CD045F24445C5F60205AC4546D0D1
:1009900045F258453EE000BF5825C4F20205AC457B
:1009A0003DD07025C4F20205AC4538D08825C4F28C
:1009B000020531E040F2B845C4F20205AC452ED044
:1009C00045F20845C5F60205AC4528D045F21C4560
:1009D00020E000BF40F22845C4F20205AC451ED01D
:1009E00040F24045C4F20205AC4518D040F25845EB
:1009F000C4F2020510E000BF45F26C45C5F60205E1
:100A0000AC450CD045F29445C5F60205AC4506D080
:100A100045F28045C5F60205AC4540F0D080456EF4
:100A2000C66E002E866E6E601CBFD0E91C566E60CE
:100A3000A44515DC9F24C4F20204A4452CDC5724F1
:100A4000C4F20204A44551DC1024C4F20204A445FB
:100A50007AD02824C4F20204A44575D040246FE063
:100A600045F22F44C5F60204A44529DC40F2B74400
:100A7000C4F20204A44545DC40F27044C4F202040E
:100A8000A44561D040F28844C4F20204A4455BD07E
:100A900040F2A04454E000BF40F22744C4F20204F4
:100AA000A4453FDCA024C4F20204A4454CD0B824E1
:100AB000C4F20204A44547D040F2104440E000BF15
:100AC00045F26B44C5F60204A44555DC45F23044BA
:100AD000C5F60204A44561D045F24444C5F60204BB
:100AE000A4455BD045F2584454E000BF5824C4F2FA
:100AF0000204A44528D07024C4F20204A44523D0E3
:100B000088241DE040F2B844C4F20204A4451BD07E
:100B100045F20844C5F60204A4453FD045F21C4402
:100B200038E000BF40F22844C4F20204A4450BD0D0
:100B300040F24044C4F20204A44505D040F25844B7
:100B4000C4F20204A4453AD18468C06D00F01F00CD
:100B50003F2505FA00F0CEF80800DCF80000402C34
:100B600020F48020CCF80000CCF8043023D1CCF85D
:100B70000820CCF80C1070BD45F26C44C5F6020498
:100B8000A4450BD045F28044C5F60204A44505D027
:100B900045F29444C5F60204A44510D1C46D012564
:100BA00004F01F04806805FA04F4CEF804404028DD
:100BB000CCF80430DBD0CCF80810CCF80C2070BD99
:100BC000704700000000000080B54FF4806002F024
:100BD000FBFC4FF4006002F0F7FC4FF4805002F091
:100BE000F3FC4FF48040BDE8804002F0EDBC000013
:100BF000EFF3108072B600BFFEE7000000000000B7
:100C000042F6C850C2F2004001F07EBF0000000072
:100C100042F6C850C2F2004001F076BF000000006A
:100C200042F66860C2F2004001F06EBF00000000B2
:100C300042F60870C2F2004001F066BF00000000FA
:100C40002DE9F041044602F0A7FD1CB3054694F8D7
:100C50003500022822D140F20F472668C4F202076D
:100C600040F26F48BE426FF00E00C4F202081DDC75
:100C70006F21C4F202018E422ADC3F21C4F202013C
:100C80008E4241DC1021C4F202018E4263D0282141
:100C90005CE000BF0120BDE8F08100BF80206065FE
:100CA0000120002184F83410BDE8F08146451BDCAA
:100CB00040F23F41C4F202018E422DDC40F210416D
:100CC000C4F202018E4246D040F228413EE000BF0D
:100CD0009F21C4F202018E4228DC7021C4F202017D
:100CE0008E4238D0882131E040F29F41C4F20201A7
:100CF0008E4223DC40F27041C4F202018E422AD0BF
:100D000040F2884122E000BF4021C4F202018E423D
:100D100021D058211AE000BF40F24041C4F2020144
:100D20008E4218D040F2584110E000BFA021C4F21A
:100D300002018E420FD0B82108E000BF40F2B84156
:100D4000C4F202018E4206D040F2A041C4F2020178
:100D50008E42314607D13146306820F01E0041F8FE
:100D6000140B6FF080000A68464500EA0200086034
:100D70001ADC9F20C4F20200864233DC5720C4F202
:100D8000020086425ADC1020C4F20200864200F0C3
:100D900097802820C4F20200864200F09180402013
:100DA000C4F202008AE000BF45F22F40C5F60200FF
:100DB00086422DDC40F2B740C4F2020086424BDC92
:100DC00040F27040C4F20200864279D040F288407E
:100DD000C4F20200864273D040F2A040C4F2020086
:100DE0006CE000BF40F22740C4F20200864243DCC0
:100DF000A020C4F20200864262D0B820C4F20200F1
:100E000086425DD040F21040C4F2020056E000BFBE
:100E100045F26B40C5F6020086423FDC45F23040A9
:100E2000C5F6020086424BD045F24440C5F60200AA
:100E3000864245D045F258403EE000BF5820C4F2FB
:100E4000020086423CD07020C4F20200864237D0B5
:100E50008820C4F2020031E040F2B840C4F202003F
:100E600086422DD045F20840C5F60200864227D0C2
:100E700045F21C4020E000BF40F22840C4F20200CE
:100E800086421DD040F24040C4F20200864217D094
:100E900040F25840C4F2020010E000BF45F26C403E
:100EA000C5F6020086420BD045F29440C5F602001A
:100EB000864205D045F28040C5F60200864204D144
:100EC000206E016821F480710160306820F001001B
:100ED000306000BF3068C00710D002F05DFC401BDE
:100EE0000628F7D320206065032084F83500012010
:100EF000002184F83410BDE8F08100BF206808218B
:100F0000B8424FF03F0211DC6F23C4F20203984253
:100F10001EDC3F23C4F20203984235DC1023C4F2E6
:100F20000203984257D0282350E000BF40451BDC05
:100F300040F23F43C4F2020398422DDC40F21043DA
:100F4000C4F20203984246D040F228433EE000BF7C
:100F50009F23C4F20203984228DC7023C4F20203E8
:100F6000984238D0882331E040F29F43C4F2020314
:100F7000984223DC40F27043C4F2020398422AD024
:100F800040F2884322E000BF4023C4F202039842AB
:100F900021D058231AE000BF40F24043C4F20203BC
:100FA000984218D040F2584310E000BFA023C4F28A
:100FB000020398420FD0B82308E000BF40F2A043DC
:100FC000C4F20203984206D040F2B843C4F20203CE
:100FD000984240F0C580D4E9163707F01F07404516
:100FE00002FA07F25A5019DC9F21C4F2020188422A
:100FF00032DC5721C4F20201884259DC1021C4F2CC
:101000000201884200F096802821C4F20201884241
:1010100000F090804021C4F2020189E045F22F41A6
:10102000C5F6020188422DDC40F2B741C4F202014C
:1010300088424BDC40F27041C4F20201884279D010
:1010400040F28841C4F20201884273D040F2A041CC
:10105000C4F202016CE000BF40F22741C4F2020179
:10106000884243DCA021C4F20201884262D0B82148
:10107000C4F2020188425DD040F21041C4F2020184
:1010800056E000BF45F26B41C5F6020188423FDCE5
:1010900045F23041C5F6020188424BD045F2444149
:1010A000C5F60201884245D045F258413EE000BFF6
:1010B0005821C4F2020188423CD07021C4F20201DE
:1010C000884237D08821C4F2020131E040F2B841B1
:1010D000C4F2020188422DD045F20841C5F6020152
:1010E000884227D045F21C4120E000BF40F2284151
:1010F000C4F2020188421DD040F24041C4F2020114
:10110000884217D040F25841C4F2020110E000BFFB
:1011100045F26C41C5F6020188420BD045F294417C
:10112000C5F60201884205D045F28041C5F60201AC
:1011300088420BD1616EA26EE06E4A6030B10168E8
:1011400021F480710160D4E91C014160012084F820
:1011500035000020002184F83410BDE8F08100BF84
:101160000421012237E70000F0B190F83510022980
:1011700018D180B540F20F420168C4F202029142D8
:1011800014DC6F23C4F20203994225DC3F23C4F22E
:10119000020399423CDC1023C4F2020399425DD061
:1011A000282357E0802141650120704740F26F43BA
:1011B000C4F2020399421BDC40F23F43C4F2020333
:1011C00099422DDC40F21043C4F20203994245D00B
:1011D00040F228433EE000BF9F23C4F2020399423D
:1011E00028DC7023C4F20203994237D0882331E00F
:1011F00040F29F43C4F20203994223DC40F2704361
:10120000C4F20203994229D040F2884322E000BF91
:101210004023C4F20203994220D058231AE000BFB1
:1012200040F24043C4F20203994217D040F25843BF
:1012300010E000BFA023C4F2020399420ED0B823ED
:1012400008E000BF40F2B843C4F20203994205D05F
:1012500040F2A043C4F20203994275D191424FF08B
:10126000040280F8352011DC6F20C4F202008142B4
:1012700022DC3F20C4F20200814239DC1020C4F29B
:101280000200814259D0282054E000BF40F26F4054
:10129000C4F2020081421BDC40F23F40C4F2020073
:1012A00081422DDC40F21040C4F20200814244D061
:1012B00040F228403EE000BF9F20C4F2020081427D
:1012C00028DC7020C4F20200814236D0882031E050
:1012D00040F29F40C4F20200814223DC40F27040A1
:1012E000C4F20200814228D040F2884022E000BFD0
:1012F0004020C4F2020081421FD058201AE000BFF3
:1013000040F24040C4F20200814216D040F2584000
:1013100010E000BFA020C4F2020081420DD0B8202E
:1013200008E000BF40F2B840C4F20200814204D09D
:1013300040F2A040C4F202008142086820F001009F
:101340000860002080BD00BF0A6822F00E020A601B
:1013500045F25742C5F6020291420A6822F00102A4
:101360000A600FDC45F22F42C5F60202914219DCF9
:1013700045F20842C5F60202914229D045F21C42CC
:1013800022E000BF45F27F42C5F60202914213DC23
:1013900045F25842C5F60202914219D045F26C421C
:1013A00012E000BF45F23042C5F6020291420FD072
:1013B00045F2444208E000BF45F29442C5F60202FD
:1013C000914205D045F28042C5F6020291421AD1FF
:1013D000D0E9181CD0E916E30A6822F480720A608A
:1013E00003F01F01012202FA01F1CEF80410816E10
:1013F000CCF80410C16E31B10A6822F480720A6020
:10140000D0E91C124A60012180F83510016D0022DC
:10141000002980F8342094D08847002080BD000047
:10142000406D7047000000002DE9F04782B00021B8
:10143000019140F2080148F2B513C2F20041C1F631
:101440004E33856D40F26F490A680168C4F20209A3
:101450002E68A2FB032849452A6815DC9F22C4F2A6
:10146000020291422CDC5722C4F20202914251DC6A
:101470001022C4F2020291427BD02822C4F202025E
:10148000914276D040226FE045F22F43C5F6020329
:10149000994229DC40F2B743C4F20203994245DC89
:1014A00040F27042C4F20202914262D040F288429D
:1014B000C4F2020291425CD040F2A04254E000BF6C
:1014C00040F22742C4F2020291423FDCA022C4F261
:1014D000020291424DD0B822C4F20202914248D099
:1014E00040F2104240E000BF45F26B43C5F60203F4
:1014F000994275DC45F23043C5F60203994200F08B
:10150000828045F24443C5F6020399427BD045F2FE
:10151000584373E05822C4F20202914229D070224B
:10152000C4F20202914224D088221DE040F2B84366
:10153000C4F2020399421CD045F20843C5F60203E7
:10154000994260D045F21C4358E000BF40F2284267
:10155000C4F2020291420CD040F24042C4F20202B4
:10156000914206D040F25842C4F20202914240F049
:101570005383C26D082302F01F0240F20F4A9340CA
:10158000C4F2020A334200F0DE8051454FF00404F9
:1015900012DC6F27C4F20207B9426DDC3F27C4F2A8
:1015A0000207B94200F39C801027C4F20207B94237
:1015B00000F0BD802827B5E0494569DC40F23F478F
:1015C000C4F20207B94200F3938040F21047C4F21C
:1015D0000207B94200F0AB8040F22847A2E000BF0A
:1015E00045F26C43C5F6020399420CD045F28043A4
:1015F000C5F60203994206D045F29443C5F60203AC
:10160000994240F009830B68C76D07F01F07042655
:10161000BE40164218BF13F0040423D10226BE4078
:10162000164218BF13F0020442D1FA40120740F1EB
:10163000F38213F0080200F0EF820A6822F00E0233
:101640000A60012101FA07F26A60416580F83510ED
:10165000C16C00294FF0000280F8342040F0D8829D
:10166000DAE200BF1A046E6034D49A0636D40A68EF
:1016700022F004020A6031E09F27C4F20207B94257
:1016800040DC7027C4F20207B94250D0882749E0F5
:1016900040F29F47C4F20207B9423BDC40F2704778
:1016A000C4F20207B94242D040F288473AE000BF94
:1016B0001A046E6000F1B4829A0600F1B5820A68DD
:1016C00022F00A020A60012180F83510002180F81A
:1016D0003410A9E2D90301D4816C98E2016C96E23E
:1016E0004027C4F20207B94221D058271AE000BFB0
:1016F00040F24047C4F20207B94218D040F25847BE
:1017000010E000BFA027C4F20207B9420FD0B827EB
:1017100008E000BF40F2A047C4F20207B94206D079
:1017200040F2B847C4F20207B94218BF08240F6854
:10173000274208D00F6827F004070F60AB60436DA5
:1017400043F0010343650123934033426FD0514579
:1017500010DC6F27C4F20207B9421DDC3F27C4F238
:101760000207B94234DC1027C4F20207B94256D04E
:1017700028274FE049451BDC40F23F47C4F20207EF
:10178000B9422DDC40F21047C4F20207B94246D0FC
:1017900040F228473EE000BF9F27C4F20207B9424B
:1017A00028DC7027C4F20207B94238D0882731E01C
:1017B00040F29F47C4F20207B94223DC40F270476F
:1017C000C4F20207B9422AD040F2884722E000BFA3
:1017D0004027C4F20207B94221D058271AE000BFBF
:1017E00040F24047C4F20207B94218D040F25847CD
:1017F00010E000BFA027C4F20207B9420FD0B827FB
:1018000008E000BF40F2A047C4F20207B94206D088
:1018100040F2B847C4F20207B94240F007824F696C
:101820003F0604D5AB60436D43F0020343650423D8
:10183000934033426FD0514510DC6F27C4F202074A
:10184000B9421DDC3F27C4F20207B94234DC10273D
:10185000C4F20207B94256D028274FE049451BDCA5
:1018600040F23F47C4F20207B9422DDC40F2104774
:10187000C4F20207B94246D040F228473EE000BF1A
:101880009F27C4F20207B94228DC7027C4F202077E
:10189000B94238D0882731E040F29F47C4F20207AE
:1018A000B94223DC40F27047C4F20207B9422AD0A1
:1018B00040F2884722E000BF4027C4F20207B94245
:1018C00021D058271AE000BF40F24047C4F2020777
:1018D000B94218D040F2584710E000BFA027C4F228
:1018E0000207B9420FD0B82708E000BF40F2A04776
:1018F000C4F20207B94206D040F2B847C4F2020768
:10190000B94240F09B810F68BF0704D5AB60436DBF
:1019100043F004034365102303FA02F2324200F05D
:10192000828051454FF0080310DC6F27C4F2020794
:10193000B9421DDC3F27C4F20207B94234DC10274C
:10194000C4F20207B94256D028274FE049451BDCB4
:1019500040F23F47C4F20207B9422DDC40F2104783
:10196000C4F20207B94246D040F228473EE000BF29
:101970009F27C4F20207B94228DC7027C4F202078D
:10198000B94238D0882731E040F29F47C4F20207BD
:10199000B94223DC40F27047C4F20207B9422AD0B0
:1019A00040F2884722E000BF4027C4F20207B94254
:1019B00021D058271AE000BF40F24047C4F2020786
:1019C000B94218D040F2584710E000BFA027C4F237
:1019D0000207B9420FD0B82708E000BF40F2A04785
:1019E000C4F20207B94206D040F2B847C4F2020777
:1019F000B94218BF04230F681F4214D0AA600A68B6
:101A000052030A6808D4D20508D40A6822F00802F2
:101A10000A60016C21B906E0110351D4016C11B1C7
:101A2000044688472046C16D01F01F02202101FABB
:101A300002F3334200F0AF8001681027514511DCFA
:101A40006F26C4F20206B1421EDC3F26C4F2020633
:101A5000B14239DC1026C4F20206B1425BD028261E
:101A600054E000BF49451BDC40F23F46C4F2020689
:101A7000B14231DC40F21046C4F20206B1424AD013
:101A800040F2284642E000BF9F26C4F20206B1425F
:101A90002CDC7026C4F20206B1423CD0882635E028
:101AA00040F29F46C4F20206B14227DC40F2704683
:101AB000C4F20206B1422ED040F2884626E000BFB2
:101AC000816C0029ACD1AEE74026C4F20206B142D7
:101AD00021D058261AE000BF40F24046C4F2020668
:101AE000B14218D040F2584610E000BFA026C4F220
:101AF0000206B1420FD0B82608E000BF40F2A0466F
:101B0000C4F20206B14206D040F2B846C4F2020660
:101B1000B14218BF02270E683E423CD0AB6090F83D
:101B20003530042B0B681DD123F016030B604B6975
:101B300023F080034B61036C0BB9836C1BB10B6802
:101B400023F008030B603F219140A960012180F838
:101B50003510016D00294FF0000280F8342057D174
:101B60005AE000BF5A030A680CD4D2050ED40A68A2
:101B700022F010020A60012180F83510002180F85F
:101B8000341003E0110301D4416C00E0C16B11B1CA
:101B9000044688472046416D00293DD0416DC90764
:101BA00034D0042180F8351001684FEA98220B6880
:101BB00023F001030B60019B0133019393421AD878
:101BC0000B68DB0717D0019B01330193934212D8B6
:101BD0000B68DB070FD0019B0133019393420AD8B6
:101BE0000B68DB0707D0019B01330193934202D8B6
:101BF0000B68DB07DFD10968C9074FF0030108BF95
:101C0000012180F83510002180F83410C16C19B121
:101C100002B0BDE8F047084702B0BDE8F08700BF5A
:101C2000D90301D4416CF2E7C16BF0E70B680423E0
:101C3000934033427FF4FFAD6DE600BF0B686AE668
:101C40002DE9F041044601F0A7FDFCB140F26F48D8
:101C500005462068C4F2020840451BDC9F21C4F2FF
:101C60000201884232DC5721C4F20201884259DC69
:101C70001021C4F20201884200F083802821C4F2BE
:101C80000201884200F07D80402175E00120BDE81E
:101C9000F08100BF45F22F41C5F60201884229DCE0
:101CA00040F2B741C4F20201884247DC40F2704181
:101CB000C4F20201884264D040F28841C4F20201B9
:101CC00088425ED040F2A04156E000BF40F227417A
:101CD000C4F20201884241DCA021C4F20201884220
:101CE0004FD0B821C4F2020188424AD040F21041DC
:101CF00042E000BF45F26B41C5F60201884200F3A5
:101D0000D18045F23041C5F60201884200F0DD8005
:101D100045F24441C5F60201884200F0D68045F202
:101D20005841CDE05821C4F20201884229D07021E7
:101D3000C4F20201884224D088211DE040F2B8415B
:101D4000C4F2020188421CD045F20841C5F60201E6
:101D5000884200F0BA8045F21C41B1E040F22841CF
:101D6000C4F2020188420CD040F24041C4F20201A8
:101D7000884206D040F25841C4F20201884240F045
:101D80003981022184F83510002184F8341001686B
:101D900021F00101016000BF20680168C9070DD072
:101DA00001F0FAFC401B0628F6D3202060650320D2
:101DB00084F835000120BDE8F08100BF48F23F0201
:101DC00004F108060168CFF61062114065694CCE37
:101DD0001143A2691943E3693143266A0D43616ADD
:101DE0002B43042943EA060343EA020303D1D4E95F
:101DF0000B652E4333436568A5F12906292E00F2B1
:101E00003182DFE816F02B002B002B002B002B007B
:101E10002B002F022F022F022F022F022F022F0240
:101E20002F022F022F022F022F022F022F022F022A
:101E30002F022B002B002B002B002F022F022F0232
:101E40002F022B002B002F022F022F022F022F0216
:101E50002F022B002B002B002B0000BF43F480131C
:101E600003600429436923F0070341EA030140F0BA
:101E7000DD80D4E90A53002B41EA050100F0D68049
:101E8000B2F5005F00F0B880002A40F0C180022D5A
:101E900000F0C180012D00F0B580002D00F0BB8066
:101EA000C4E000BF45F26C41C5F6020188420CD087
:101EB00045F28041C5F60201884206D045F29441C0
:101EC000C5F60201884240F0958004F1080E022117
:101ED00084F83510002184F834100168A3699EE865
:101EE0000450A2F18005E769B5FA85F566696D09C8
:101EF000402A4FEA853543EA07026FF3101142EAA0
:101F0000060208BF102541EADC0142EA0E02236AFC
:101F1000294341EAD20141EA131140F80819C0B23D
:101F2000CD2148433C2101EA9020E0652046FEF7A0
:101F30002FFCE16D012201F01F0102FA01F1416065
:101F40002068404500F381809F21C4F2020188424D
:101F500014DC5721C4F20201884227DC1021C4F2AC
:101F60000201884200F0C7802821C4F202018842A1
:101F700000F0C1804021C4F20201B9E040F22741E3
:101F8000C4F20201884221DCA021C4F2020188428D
:101F900000F0B180B821C4F20201884200F0AB80A9
:101FA00040F21041C4F20201A2E000BF5821C4F285
:101FB0000201884200F09F807021C4F20201884231
:101FC00000F099808821C4F2020191E040F228419A
:101FD000C4F20201884200F08E8040F24041C4F217
:101FE0000201884200F0878040F25841C4F20201A9
:101FF0007EE000BF4020D9E6032D17D8DFE805F0CA
:102000000E0B0E02A3F1C072B2FA82F2520904E082
:10201000032D03D30AD1C3F300623AB140206065B7
:10202000012084F83500BDE8F08100BF4161204601
:10203000FEF7AEFBE16D3F2201F01F0102FA01F154
:102040008160206840457FF77FAF45F22F41C5F69C
:102050000201884216DC40F2B741C4F20201884214
:1020600026DC40F27041C4F20201884243D040F2C3
:102070008841C4F2020188423DD040F2A041C4F23E
:10208000020135E045F26B41C5F6020188421FDCD2
:1020900045F23041C5F6020188422CD045F2444158
:1020A000C5F60201884226D045F258411EE000BF25
:1020B00040F2B841C4F2020188421CD045F2084106
:1020C000C5F60201884216D045F21C410EE000BF61
:1020D00045F26C41C5F6020188420CD045F29441AC
:1020E000C5F60201884206D045F28041C5F60201DC
:1020F000884240F0E18045F2574C45F6FC0EC5F6AB
:10210000020CC5F6020E60450EDC45F22F41C5F605
:102110000201884218DC45F20841C5F602018842F6
:1021200028D045F21C4121E045F27F41C5F602016D
:10213000884213DC45F25841C5F60201884219D0A5
:1021400045F26C4112E000BF45F23041C5F6020194
:1021500088420FD045F2444108E000BF45F2944167
:10216000C5F60201884205D045F28041C5F602015C
:10217000884247D100F0FC014CF6CD420839CCF63C
:10218000CC42A1FB0212AEF1FC05AEF17C061309B4
:10219000A26803F01F01802A4FF0010205EB8305BE
:1021A000256602FA01F26666A26605D1002060602B
:1021B000286072601EE000BF6368D9B25F1E072FFF
:1021C0002960726016D84E1E082E19D260450EF195
:1021D000440237DC45F22F41C5F60201884249DC52
:1021E00045F20841C5F60201884259D045F21C412A
:1021F00052E000BF00206067C4E91B005CE000BF44
:10220000E06E54E000F0F8014AF6AB221039CAF64D
:10221000AA22A1FB021240F20F43C4F202030825D6
:102220001109984203F1AA060B4688BF05EB121369
:1022300040F60005B042C4F2020505F1800628BF51
:102240000B46A5E745F27F41C5F6020188421BDC3B
:1022500045F25841C5F60201884221D045F26C4151
:102260001AE000BF25F00307742F08BF43F4801362
:10227000F6E500BF45F23041C5F6020188420FD0B5
:1022800045F2444108E000BF45F28041C5F6020135
:10229000884205D045F29441C5F60201884213D127
:1022A0000EEB83000121E066B140226761670021E7
:1022B0000160D4E91C01416000206065012184F8BF
:1022C0003510BDE8F08100BF40F60000C4F2020006
:1022D00000F1FC0E00F5A072E2E700000000000033
:1022E00030B110B590F83440012C03D1022010BD5C
:1022F00001207047012480F8344090F83540012CCB
:102300002CD1022480F8354000244465D0F800C068
:10231000DCF8004024F00104CCF800400446FEF74D
:10232000CBFA40F20F4C2068C4F2020C40F26F412D
:102330006045C4F2020119DC6F23C4F20203984223
:1023400026DC3F23C4F2020398423DDC1023C4F292
:10235000020398425FD0282358E000BF4FF4006189
:102360004165002180F83410012010BD88421BDC3B
:1023700040F23F43C4F2020398422DDC40F2104386
:10238000C4F20203984246D040F228433EE000BF28
:102390009F23C4F20203984228DC7023C4F2020394
:1023A000984238D0882331E040F29F43C4F20203C0
:1023B000984223DC40F27043C4F2020398422AD0D0
:1023C00040F2884322E000BF4023C4F20203984257
:1023D00021D058231AE000BF40F24043C4F2020368
:1023E000984218D040F2584310E000BFA023C4F236
:1023F000020398420FD0B82308E000BF40F2B84370
:10240000C4F20203984206D040F2A043C4F2020391
:10241000984240F02F8103680B2262F3440303606B
:10242000226C1AB1082302681A430260884219DC40
:102430009F22C4F20202904232DC5722C4F202020E
:10244000904259DC1022C4F20202904200F09680C1
:102450002822C4F20202904200F090804022C4F28E
:10246000020289E045F22F42C5F6020290422DDCBD
:1024700040F2B742C4F2020290424BDC40F270429A
:10248000C4F20202904279D040F28842C4F20202C1
:10249000904273D040F2A042C4F202026CE000BF4E
:1024A00040F22742C4F20202904243DCA022C4F26E
:1024B0000202904262D0B822C4F2020290425DD081
:1024C00040F21042C4F2020256E000BF45F26B42F5
:1024D000C5F6020290423FDC45F23042C5F60202E8
:1024E00090424BD045F24442C5F60202904245D09C
:1024F00045F258423EE000BF5822C4F20202904228
:102500003CD07022C4F20202904237D08822C4F23A
:10251000020231E040F2B842C4F2020290422DD0F1
:1025200045F20842C5F60202904227D045F21C420D
:1025300020E000BF40F22842C4F2020290421DD0C7
:1025400040F24042C4F20202904217D040F2584298
:10255000C4F2020210E000BF45F26C42C5F602026E
:1025600090420BD045F29442C5F60202904205D04B
:1025700045F28042C5F60202904274D1236E1A6879
:10258000D20303D51A6842F480721A60E36E1BB15D
:102590001A6842F480721A60604511DC6F21C4F23F
:1025A000020188421EDC3F21C4F20201884235DC70
:1025B0001021C4F20201884255D0282150E000BF0A
:1025C00088421BDC40F23F41C4F2020188422DDC0C
:1025D00040F21041C4F20201884244D040F2284146
:1025E0003EE000BF9F21C4F20201884228DC702136
:1025F000C4F20201884236D0882131E040F29F4186
:10260000C4F20201884223DC40F27041C4F20201AC
:10261000884228D040F2884122E000BF4021C4F225
:10262000020188421FD058211AE000BF40F2404109
:10263000C4F20201884216D040F2584110E000BFB7
:10264000A021C4F2020188420DD0B82108E000BFE9
:1026500040F2B841C4F20201884204D040F2A041E5
:10266000C4F202018842016841F0010101600020CA
:1026700010BD00BF0268052363F343020260226CB1
:10268000002A3FF4D3AE0423CDE600000000000092
:10269000B0B5044601F080F840F200010546C2F2F0
:1026A0000041621C097818BF0C4400BF01F074F8A7
:1026B000401BA042FAD3B0BD90F89830013B012BEB
:1026C0000ED80068836D0B4212D0836D0B408B4295
:1026D00032D1C36D43F00203C3658B050ED412E003
:1026E00000F19C01012002220B681A430A60704726
:1026F000C36D43F00103C3658B0504D5D0F8E0300A
:102700001343C0F8E0304B0504D5D0F8E4301A4349
:10271000C0F8E4204FF6FF72436DC3F6CF720A4053
:102720001A4342658A0F4AF614010020C4F20001E0
:102730000B681A430A6070470323C3658B05DDD419
:10274000E1E700000000000090F89830022B1BD158
:102750002DE9F0430668D6F8C03013F07C5F1BD03B
:10276000D6F8C4309B0221D4D6F8C4300C69C3F328
:10277000044CD1E90035002D8D6821D023432B4333
:1027800043F0804E20E000BFD0F89C1041F00801DB
:10279000C0F89C1001207047D0F89C1041F0200137
:1027A000C0F89C100120BDE8F08300BFD0F89C1059
:1027B00041F40071C0F89C100120BDE8F08300BF17
:1027C00044EA834343EA050E836ED0F88450D1E98E
:1027D00007970CFB03F48B6949EA0767D1F814806B
:1027E000D1F80C901F4305EB840347EA080745F82E
:1027F00024E047EA09475F60CF6887B14EF6642559
:10280000083303320024C0F6000500BF171957F83B
:10281000037C1F51CF680434EF5DBC42F6D3012125
:1028200001FA0CF1C6F8D010C0F894100020BDE8F1
:10283000F08300000000000070470000000000006E
:1028400090F89820013A012A0CD880B50A68002A2D
:10285000CA680FD00B69072A43EA427E18D18B69F8
:102860001BE000BFD0F89C1041F00201C0F89C10A2
:1028700001207047072A19D10A69D1E906C3120459
:1028800042EA032242EA0C0242F0605218E000BF22
:10289000D1F808C04B6943EA8C73006F496800EBBC
:1028A000C10240F831E05360002080BD8B68D1E95F
:1028B00004CE9B0743EAC26242EA0C4242EA0E029D
:1028C0004968C06E40F82120002080BD0000000053
:1028D00090F898C0BCF1010F0ED19200006842EA56
:1028E0000111DDF800C041EA430141EA0C01C0F8E2
:1028F00080100020704700BFD0F89C1041F0040108
:10290000C0F89C10012070477047000000000000D4
:1029100070470000000000002DE9F04390F8987027
:10292000022F11D1402919D10668D6F8A07017F4EA
:10293000FE0F2FD0D6F8A4707F0635D0D6F8A4703D
:10294000FF013BD400273CE0D0F89C1041F0080187
:10295000C0F89C100120BDE8F08300BF41290FD1D1
:102960000668D6F8B07017F4FE0F13D0D6F8B4701E
:102970007F0619D0D6F8B470FF012BD400272CE0C5
:10298000076DB94206D200F17C05466D4FF0000C90
:102990000F462BE0D0F89C1041F02001C0F89C10AD
:1029A0000120BDE8F08300BFD0F89C1041F4807195
:1029B000C0F89C100120BDE8F08300BFD6F8A070DD
:1029C000FF0FD6F8A46000F17405C6F305263E4457
:1029D000476C0AE0D6F8B070FF0FD6F8B46000F18B
:1029E0007805C6F305263E44C76CB44607FB06F4DB
:1029F0002D6805EB840E55F8247017F0804757605A
:102A000055F8247027F0604608BFC7F38A46166061
:102A100055F8247007F00057976055F8244004F0EB
:102A200000441461BEF80440D461BEF8064014F0BE
:102A30000F04D460DEF8044004F480145461DEF81E
:102A4000044004F4001494619EF8074004F07F04ED
:102A50001462DEF804404FEAD474546228D04EF673
:102A600064280024C0F600080EEB0406651C377AC3
:102A70001F55D76818F80770BD4219D21F19757A0B
:102A80007D70D56818F80590A51C4D453FBFB57AF7
:102A9000BD70D56818F805903CBFE51C4D4507D2C0
:102AA000F57A0434FD70D56818F80550AC42DBD3D4
:102AB000402905D10068C0F8A8C00020BDE8F08317
:102AC000412905D10068C0F8B8C00020BDE8F083F6
:102AD0001F2909D80068012202FA01F1C0F89810F4
:102AE0000020BDE8F08300BF006801F01F01012253
:102AF00002FA01F1C0F89C100020BDE8F08300004C
:102B000070470000000000002DE9F04F87B0044638
:102B10004AF61000C4F2000001684AF61400C4F23C
:102B20000000026820680A40D0F850B0D0F85490F5
:102B3000056D466D036D0293436D0193036D06931E
:102B4000436D0593036D0493436D0393D0F854A034
:102B5000D0F850805FEACA5311D518F480710ED0B6
:102B60004FF4807101654AF610010020C4F20001A3
:102B7000174608602046FFF7C3FF3A4620685FEA21
:102B80004A510BEA090B4FEA827740F14B814AF632
:102B9000100918F48061C4F2000910D0D0F8DC10DC
:102BA0000092D0F8E42011404FF4806202650020CA
:102BB000C9F80000204600F0F3FC009A206805EAFE
:102BC00006050BF4704657B10021016502F00300C1
:102BD000C9F8000020463946FFF72EFE2068DDE9DF
:102BE000012101EA020705F00F0546B10665002044
:102BF000C9F800002046314600F0DAFC206807F0F2
:102C0000F00645B105650020C9F8000020462946B8
:102C100000F012FC206846B106650020C9F80000EB
:102C20002046314600F048FC20685FEA0A510CD586
:102C300018F4006109D04FF4006101650020C9F863
:102C40000000204600F0B8FC20685FEA8A5111D5E8
:102C500018F400710ED0D0F8D810D0F8E020114050
:102C60004FF4007202650020C9F80000204600F011
:102C70009BFC20685FEA0A310CD518F4002109D0CA
:102C80004FF4002101650020C9F80000204600F043
:102C9000CFFB20685FEACA310CD518F4803109D027
:102CA0004FF4803101650020C9F80000204600F093
:102CB00073FC20685FEA4A31DDE9032101EA02057D
:102CC0000CD518F4802109D04FF480210165002033
:102CD000C9F80000204600F05BFC20685FEA8A31FA
:102CE000DDE9052102EA010205F060710ED518F454
:102CF00000330BD04FF4003303650023C9F80030D4
:102D0000D4F89C3043F08003C4F89C3002F0715535
:102D100039B101650020C9F800002046FFF7F8FD31
:102D2000206845B105650021C9F80010D4F89C1051
:102D30002943C4F89C10A9F5016188420AD0D4F84F
:102D40009C0000286AD0204607B0BDE8F04FFFF78E
:102D5000DBBD00BF606881688907F0D0016A426A04
:102D6000036A476A114003EA070202F03005D0F80F
:102D70002080D0F82490D0F820B0466A026A0692EB
:102D800011F00F01426A0592D0F824A0026A049261
:102D900003D00162204600F0EFFB08EA09072DB1DD
:102DA000606829460562204600F0EEFB5FEA4A6053
:102DB00006EA0B0607F4C0750ED5049810F0400023
:102DC0000AD060684023C16BC26B090C02F03F025D
:102DD0000362204600F0D4FBDDE9051000EA01079C
:102DE00006F4FC462DB1606829460562204600F0D5
:102DF000BFFB07F4F02036B161680E62D4F89C1076
:102E00003143C4F89C10002899D061680862D4F856
:102E10009C100843C4F89C0091E700BF07B0BDE8D0
:102E2000F08F00BF4AF61009C4F20009002F05EA2E
:102E300006050BF470467FF4C7AED0E60000000034
:102E4000F0B12DE9F04F83B04AF200080446C4F215
:102E500000080068404533D094F89810B9B38169F0
:102E600021F01001816100F097FC0546206881691E
:102E7000090707D500F090FC401B0B28F6D312E0A1
:102E800001207047816941F00101816100F084FCFB
:102E9000054600BF20688169C90721D100F07CFC8C
:102EA000401B0B28F6D30120D4F89C100843C4F82B
:102EB0009C00032084F89800012003B0BDE8F08F47
:102EC00008F58071616094F898100029C7D100203E
:102ED00084F89900204600F0B3F92068BFE700BFEE
:102EE000816941F002018161217C826922F0400206
:102EF000012918BF40328261617C826922F48042DC
:102F0000012908BF02F580428261A17C826922F416
:102F10008052012918BF02F580528261816921F433
:102F20004073D4E902120B438361836923F0A40345
:102F30008361036923F0100303619AB1012A0DD064
:102F4000022A09D08369032A43F08003836103695D
:102F500043F01002026105D1202200E004228369BF
:102F60001A438261D4E90572E369561E6FF0FF02CD
:102F7000256A02EB0323B1F5407F43EA4663A5F1DE
:102F8000010646EA030640F20003CFF6FF7303EBA7
:102F9000074746EA0701C16110D1D4E90B65D4E9BE
:102FA0000917013F02EB06226FF00F063A4306EBCA
:102FB00005173A4303EB01411143C160236E2BB166
:102FC000616ED0F8C0201143C0F8C010E16DCDE9AA
:102FD0000113D9424EF66C11C0F6000109D0D0F8A9
:102FE000C820A36E22F0070251F823301A43C0F81C
:102FF000C820D4F840C0BCF1000F09D0D0F8BC20E4
:10300000636C22F0070251F823301A43C0F8BC2049
:10301000D4F848B0BBF1000F0AD0D0F8BC20E36C64
:1030200022F0700251F8233042EA0312C0F8BC20AB
:10303000D4F850A0BAF1000F0AD0D0F8BC20636DCC
:1030400022F4E06251F8231042EA0121C0F8BC10DA
:10305000404504D161688A6822F003028A60002139
:10306000C4F89410C4F89C10012184F8981004F15D
:103070003409D0F884104FF6FC729143656C99E8DE
:103080000C02009541EA8201C0F88410D0F8841047
:1030900021F47F0141EA0341C0F884109918D0F867
:1030A00088306FF38F0343EA8103C0F88830D0F88B
:1030B000883023F4FE0343EA0943C0F8883001EB6B
:1030C0004903D0F8A0606FF38F0646EA8306C0F884
:1030D000A060D0F8A06026F4FE0646EA0C46C0F8D0
:1030E000A06005FB0C36D0F8B0306FF38F0343EAD5
:1030F0008603C0F8B030D0F8B03023F4FE0343EAC2
:103100000B43C0F8B030E36CD0F8AC506FF38F05D0
:1031100003FB0B6645EA8605C0F8AC50D4F8548032
:1031200008FB0A65D0F8F0606FF38F0646EA850663
:10313000C0F8F060D0F8F0E0A66D2EF47C1747EAF6
:103140000647C0F8F070F70007EB8507D0F8C050CD
:103150006FF38F052F43C0F8C070D0F8C070009D8A
:10316000DDF804E027F47C1705FB0CFC4AF20005AF
:1031700047EA0E47C0F8C070C4F2000503FB0BC35A
:1031800005F54067D0F8C05007EB820207EB8101DC
:1031900025F07C57029D47EA0567C0F8C07001EB37
:1031A000C90008FB0A372167A16E00EB8C0C606731
:1031B00000EB8303E266C4E91EC30EFB01F300EBE0
:1031C00087006943C4F8800000EBC600C4F884009F
:1031D00000EB8300C4F8880000EB81004DF2FC3165
:1031E000C4F20001C4F89000884201D920205BE6B7
:1031F00082421FD21146002041F8040BD4F89030CF
:103200009942BFF45AAE506002F10801D4F89030F0
:1032100099423FBF906002F10C01D4F8903099427E
:10322000BFF44BAED0601032D4F890108A42E1D394
:1032300043E600BF002003B0BDE8F08F00000000AF
:10324000B0B5B6B0044602A8B8210025CDE9345582
:10325000CDE932553195FDF7B0F94DF200412068C6
:10326000C4F20001884200F097804AF20041C4F2A3
:10327000000188424ED04AF20001C4F200018842A7
:1032800040F0D180002003904FF4004002904FF0B6
:1032900080501D9002A801F03FFD08B1FDF7A8FC89
:1032A00040F2EC2144F2E040C2F20041C5F60200D7
:1032B0000A68002A02F101020A6008D1C16841F4DB
:1032C0008071C160C16801F4807101910199016848
:1032D00041F008010160006831A900F00800019088
:1032E000019803203190022032900020CDE9330074
:1032F0000920359040F60040C5F6020000F070F954
:1033000013200021002200F0DFFA132000F0C8FA99
:10331000152480E0002003904FF4004002904FF00D
:1033200080501D9002A801F0F7FC08B1FDF760FC89
:1033300040F2EC2144F2E040C2F20041C5F6020046
:103340000A68002A02F101020A6008D1C16841F44A
:103350008071C160C16801F48071019101990168B7
:1033600041F002010160006840F6004100F00200F7
:103370000190C5F602010198602031900220329040
:103380000020CDE9330009203590A1F5006031A976
:1033900000F026F914243EE04FF4004002904FF074
:1033A00080501D9002A8039501F0B6FC08B1FDF70E
:1033B0001FFC40F2EC2144F2E040C2F20041C5F6AD
:1033C00002000A68002A02F101020A6008D1C168FD
:1033D00041F48071C160C16801F48071019101996B
:1033E000016841F008010160006831A900F008009F
:1033F000019001984FF4405031900220329000200B
:10340000CDE933000520359040F60040C5F60200B6
:1034100000F0E6F89F2400210022204600F054FA34
:10342000204600F03DFA36B0B0BD000000000000BC
:103430007047000000000000B0B54DF20042016886
:10344000C4F2000291421FD04AF20042C4F20002CC
:1034500091420BD04AF20002C4F20002914227D1FD
:1034600040F26015C2F2004512E000BF40F2601564
:103470004021C2F2004505F13C0405F164032246F7
:10348000FFF74AFAE96E0BE040F2B425C2F20045BC
:103490002C1D05F12C0340212246FFF73DFA696BF4
:1034A000002908BFB0BD2046BDE8B040084700BFB6
:1034B000B0BD000000000000B0B54DF20042016850
:1034C000C4F2000291421FD04AF20042C4F200024C
:1034D00091420BD04AF20002C4F20002914227D17D
:1034E00040F26015C2F2004512E000BF40F26015E4
:1034F0004121C2F2004505F13C0405F16403224676
:10350000FFF70AFAE96E0BE040F2B425C2F200457B
:103510002C1D05F12C0341212246FFF7FDF9696BB3
:10352000002908BFB0BD2046BDE8B040084700BF35
:10353000B0BD00000000000090F8981001290DD1E6
:10354000022180F8981001688A6922F001028A61DC
:103550000021C0F89C100020704700BFD0F89C10DC
:1035600041F00401C0F89C100120704700000000E9
:1035700070470000000000007047000000000000DD
:1035800070470000000000007047000000000000CD
:1035900070470000000000007047000000000000BD
:1035A00070470000000000007047000000000000AD
:1035B000704700000000000070470000000000009D
:1035C00070470000000000008821C5F600010A686D
:1035D000024208BF70470860FFF7F2BF000000001A
:1035E0002DE9F04F83B00F68002F00F0C98000F183
:1035F000264642F2004506F1FF76C5F602050A228C
:10360000A8424FEAB62540F2040C08BF092200F197
:1036100020030093082DC5F6000C38BF4FEAB622F0
:10362000002400264FF0000801920AE008F101088A
:103630000F6837FA08F206F1020604F1040400F0FC
:103640009F80012202FA08FE17EA0E09EED0D1F897
:1036500004B003220BF00307B2407D1E6FEA020A9A
:10366000012D11D88268CD6802EA0A02B5402A43CA
:103670008260CBF30015426822EA0E0205FA08F5D3
:103680002A43426004E000BF032F01D103271FE05B
:10369000C2688D6802EA0A02B540022F42EA0502BA
:1036A000C26015D16FF0030204F01C0502EA580B4A
:1036B000009A0F2352F80BE0AB400F692EEA030388
:1036C000AF403B4342F80B30D1F804B00BF0030796
:1036D000026807FA06F302EA0A021BF4403F42EAD4
:1036E00003020260A2D044F2F44340F2084EC5F651
:1036F0000203C5F6000E0F251A6842F002021A6096
:103700001A6802F00202029228F00302029B04F0FF
:103710000C0352F80E709D40AF43019D05FA03F370
:103720003B4342F80E304FF0B04EDEF800204B68BD
:1037300042EA0907DD0258BF22EA09079D02CEF8D6
:103740000070DCF8002042EA090758BF22EA0907A6
:103750009D03CCF80070DCF8802042EA090758BFCE
:1037600022EA0907DB03CCF88070DCF87C2042EA0F
:10377000090758BF22EA0907CCF87C7056E700BF5A
:1037800003B0BDE8F08F0000002A08BF0904816182
:10379000704700000000000043F27C70C2F200405D
:1037A000006870470000000040F2000043F27C71A6
:1037B000C2F20040C2F2004100780A68104408607A
:1037C000704700000000000080B5032000F0ACF856
:1037D00002F096F944F218414EF63C23C5F6020178
:1037E000C0F600030A68C2F303229A5C096801F07C
:1037F0000F0102F01F02595CD04040F20C02C2F2ED
:10380000004201F01F0120FA01F1116040F20801AD
:10381000C2F2004108600F2000F00AF800281CBF27
:10382000012080BD00F02CF8002080BD00000000C9
:10383000B0B540F20005C2F200452978F1B1044666
:1038400040F20800C2F200404FF47A72B2FBF1F18C
:103850000068B0FBF1F002F07BFC0F2C01464FF04A
:1038600001000AD8002918BFB0BD4FF0FF30002278
:10387000214600F029F800206C60B0BD0120B0BDE9
:1038800081B044F2F440C5F60200016841F0020143
:103890000160006800F002000090009801B07047DD
:1038A000002848BF704700F01F01012202FA01F111
:1038B0004EF20012C0F34A10CEF2000242F820107D
:1038C000704700000000000070B54EF60C5C4FF031
:1038D000FF36CEF2000C00F1604505F56445DCF8DA
:1038E0000030C3F3022E8EF00703042B28BF0423FD
:1038F000BEF1030406FA03F321EA030100F00F030B
:1039000038BF0024043B0028634406FA04F048BF93
:1039100003F10C05A14022EA0000084300012870D1
:1039200070BD0000000000004EF60C514FF6FF0382
:10393000CEF200010A681A4060F30A2242F0806069
:1039400040F0FD700860704701680122C0F8D8247B
:10395000002280F8CC24886940F000608861486DBE
:1039600040F08052002042F003024A657047000098
:10397000704700000000000002680020516270479C
:103980002DE9F043D0F80080D8F8243091B1D8F870
:103990002870B1F1010C03EB17414FD05FFA8CF3A3
:1039A0000CF0030E042B08F582730BD200270024C1
:1039B0002BE000BF002043EA0241C8F82810BDE810
:1039C000F08300BF0CF0FC0908F1F406002400BFEE
:1039D00056F8107F44F00100C0B244F00305EDB288
:1039E00001EB174144F0020753F82000FFB2043402
:1039F00001EB104053F8271053F82550E7B200EBC5
:103A000011404F4500EB1541E2D1BEF1000F15D03A
:103A100053F82700BEF1010F01EB10410ED0601CDE
:103A2000BEF1020FC0B253F8200001EB104105D0E7
:103A3000A01CC0B253F8200001EB104108EB8C0031
:103A400041EA0241C0F804110020BDE8F083000003
:103A5000D0F8E00407F06CB801EBC10200EB820281
:103A6000D0F8E004126A06F0CFBF000000000000AA
:103A700001EBC10200EB8202D0F8E004D2F8602230
:103A800007F01EB800000000D0F8E00407F054B8BA
:103A900010B54FFA81FC0A4601F00F0E4FF4157174
:103AA000BCF1000F4FEAD21248BF14210EEBCE0C2E
:103AB00090F89444431803EB8C01012C03F82CE09C
:103AC0004A7001D1022010BD012280F894240268BE
:103AD0000446104607F038FE002084F8940410BD18
:103AE000B0B5027901F00F03934201D90120B0BDB6
:103AF0004AB24FF41574002A03EBC30E48BF1424D6
:103B0000C909021990F8944402EB8E0C012C4FF075
:103B100000048CF801108CF8024002F82E3001D11C
:103B20000220B0BD012180F89414016805460846C2
:103B3000614608F0F9F8204685F89444B0BD0000CD
:103B400001F00F0101EBC10100EB8100D0F8680228
:103B5000704700000000000010B54FFA81FCBCF176
:103B6000000F01F00F0C0CEBCC0123D400EB810E05
:103B700000218EF855120EF515718EF854C2CEF84C
:103B80005C228EF85832022B01D100224A7190F843
:103B90009424012A02D1022010BD00BF012280F826
:103BA000942402680446104607F062FC002084F862
:103BB000940410BD00EB81014FF0010E01F814CF09
:103BC00081F801E08A600B71A1F81AC0022BDCD0E9
:103BD000DDE700000000000080B501F00F0C0CEBE9
:103BE000CC0100EB810E0021CEE998238379CEF839
:103BF00068128EF855120EF51571012B8EF854C20D
:103C000008BFCA6100681A4608F0DAF8002080BDD3
:103C1000B0B5027901F00F0494424FF001022BD8A5
:103C20004BB24FEAD11C002B4FF4157548BF21460B
:103C300048BF142590F894E401EBC1030544BEF19C
:103C4000010F05EB830105F8234081F801C08A705C
:103C500002D10220B0BD00BF80F894240546006860
:103C600008F08EF82CB9A979286805F29C4208F072
:103C70002BF8002285F894241046B0BD0000000007
:103C800080B501F00F0C90F806E00CEBCC01BEF112
:103C9000010F00EB810101F814CF4FF0000C0B6114
:103CA0004FF00103CA60C1F814C04B7008BFCA616D
:103CB0000068724608F084F8002080BD0000000013
:103CC0002DE9F04F87B005688246284608F088FA4B
:103CD00010B107B0BDE8F08FDAF8000008F0B8FACC
:103CE0000028F6D0D5F80808C0F30D20CAF8D4048F
:103CF000DAF8000008F0ACFA8007DAF8000003D523
:103D0000416901F00201416105F50061059108F08A
:103D10009FFAC006DAF80000069535D5816921F0D2
:103D2000100181612C6A04F00F0000EBC001C4F3A4
:103D300043400AEB8101062801F5157512D00228CF
:103D40001BD147F6F07014EA000616D03409E96872
:103D50000698224608F080FAE86800EB1610E86042
:103D600008E000BF0AF29C410822069808F074FAA5
:103D7000C4F30A14686920446861DAF800008169B4
:103D800041F010018161069D08F062FA000340F1E4
:103D9000F980DAF8000008F037FA002800F0F28025
:103DA00006464FF4306800244FF0000B0AF29C40A6
:103DB000049008E00BF1010B760808F1200804F1EB
:103DC000240400F0DF80F007F4D05FFA8BF9DAF812
:103DD0000000494608F034FA0746C00761D005EBF9
:103DE000080001218160DAF8000008EB0001036C93
:103DF0008A689AF80650012D26D1150734D4950605
:103E000000F1B88043F20B05C4F65475AB42069D31
:103E100002D312F4004231D10AEB0402D2F8743218
:103E200009696FF3DF41A3EB0101C2F86812A4BB7B
:103E3000D2F86432002B00F0A380D2F8600208446C
:103E4000C2F8600229E000BF43F20B05C4F65475C6
:103E5000FF35AB4218D11004069D0FD490061CD537
:103E60002020886019E000BF43F20B00069DC4F6D5
:103E70005470834215D312F4004012D04FF4004026
:103E8000886038070FD43DE0069D34B9DAF8641233
:103E900019B90021049A07F017FF50464946FFF769
:103EA000E7FD38072ED505EB08000821816043F2B5
:103EB0000B01DAF80000C4F65471056C40448D42E1
:103EC00081680BD311F4004108D04FF400418160A8
:103ED000504600F06DFD069D0AE000BF504600F020
:103EE00067FD43F20B00C4F654708542069D09D36A
:103EF0009AF80600012805D1DAF800000121049A99
:103F000007F0E2FEF80607D4B8070BD4B80624D4AD
:103F1000B8047FF54FAF27E005EB08001021816062
:103F2000B807F3D56869000604D50599486840F4D8
:103F3000806048600AEB040090F85712012906D10E
:103F4000002180F857125046494600F07DFB05EBF2
:103F5000080002218160B806DAD505EB08002021AF
:103F60008160B8047FF526AF05EB08004FF40051DF
:103F700081601FE720208860069D380793D4C1E741
:103F8000012187E7DAF8000008F062F9400340F108
:103F9000E180DAF8000008F02FF9002800F0DA805C
:103FA0000646069800F5106900250AF114000490F1
:103FB0000AF29C400290CDF80C9004E0760805F1DE
:103FC000010500F0C780F007F8D0EFB2DAF8000082
:103FD000394608F021F90446C0070BD1200735D433
:103FE000E00639D460063DD4A00741D42006E5D5CB
:103FF00058E000BF059B05F00F004FF0010C09EBE6
:1040000045120CFA00F0596B21EA00005863C2F81F
:1040100008C09AF80600012812D105EBC5000499E2
:1040200001EB8000D0E902121144C16045B900697A
:1040300030B9DAF800000121029A07F045FE00BF0E
:1040400050463946FFF708FD2007C9D509EB451052
:1040500008218160E006C5D509EB4510102181607B
:104060006006C1D509EB451040218160A007BDD590
:104070000698294608F044F805EBC500049901EBC1
:10408000800010F8031F012905D10021017050465E
:10409000394600F0D5FA09EB45100221816020066F
:1040A0007FF58CAF05EBC500049901EB8008D8E9DA
:1040B00004108142FFF482AFDAF800400A1AD8F8FF
:1040C00008309A4238BF134604EB451203F1030C43
:1040D000D2F818399BB2B3EB9C0F2BD302F51069C1
:1040E000D8F81010814223D9081A9AF80620D8E986
:1040F00002B1584538BF8346009220461FFA8BF321
:104100003A4608F055FBD8F80C00D8F8141058447B
:10411000C8F80C0001EB0B00C8F814000BF1030108
:10412000D9F8182092B2B2EB910FD9D2D8F810106A
:10413000DDF80C9081423FF641AF05F00F00012100
:1041400001FA00F0D4F8341821EA0000C4F8340869
:1041500034E700BFDAF8000008F07AF800280DD440
:10416000DAF8000008F074F8000526D4DAF8000048
:1041700008F06EF8000131D43CE000BF05994868B2
:1041800020F0010048609AF8CC04012808D10020F2
:104190008AF8CC0400215046FFF7EAFB03E000BF99
:1041A000504600F0E9FBDAF80000416901F00041F7
:1041B000416108F04DF80005D8D505988068C00722
:1041C00002D0504600F01CFCDAF80000416901F40E
:1041D0000061416108F03CF800010BD5DAF80000FD
:1041E000416901F0006141619AF8CC1491B15046E7
:1041F00000F006FCDAF8000008F02AF8C0041AD42F
:10420000DAF8000008F024F88004DAF8000000F181
:104210000D8126E101218AF8CC14406DC0F38300A2
:10422000CAF8D0045046FFF7A3FBDAF8000008F004
:104230000FF8C004E4D50599486820F001004860F3
:10424000DAF80000102107F05BFF9AF8040001067D
:1042500000F0BB80C1B200F00300042902D20021AB
:1042600068E000BF6FF06002002302EA41124FF6DF
:104270007F370021069C00BFE61880339A4201F187
:104280000401C6F80879D6F8005925F40015C6F8D7
:104290000059C6F8087BD6F8005B25F40015C6F86F
:1042A000005BD6F8005B45F00065C6F8005BC6F819
:1042B0002879D6F8205925F40015C6F82059C6F8F3
:1042C000287BD6F8205B25F40015C6F8205BD6F8CD
:1042D000205B45F00065C6F8205BC6F84879D6F843
:1042E000405925F40015C6F84059C6F8487BD6F861
:1042F000405B25F40015C6F8405BD6F8405B45F0FE
:104300000065C6F8405BC6F86879D6F8605925F4B0
:104310000015C6F86059C6F8687BD6F8605B25F4CE
:104320000015C6F8605BD6F8605B45F00065C6F81E
:10433000605BA1D1002848D0069A4D0102F51063B8
:1043400002F5306203EB41164FF67F3702EB411462
:104350000128B7605E5926F400165E51A7605659D1
:1043600026F400165651565946F0006656512CD088
:104370004E1C02284FEA461403EB461502EB461684
:10438000AF601D5925F400151D51B760175927F46A
:1043900000171751175947F00060105115D0881CAD
:1043A0004FF67F36470103EB401102EB40108E6061
:1043B000D95921F40011D9518660D05920F4001048
:1043C000D051D05940F00060D051059F8421442243
:1043D000F86940F00110F8619AF80F0000284FF0DA
:1043E0000B0008BF142104BF42F22B0010227B589F
:1043F00018437850B85840F00B00B85038680AF2AB
:104400009C4220F4FE6038609AF80610DAF800004A
:1044100007F05AFCDAF80000416901F4805141616B
:1044200007F016FF8004DAF800001AD507F064F8E8
:10443000DAF8000007F0C4FE8AF80700DAF8004056
:1044400001F0D6FA9AF807200146204608F024F930
:10445000504600F079FADAF80000416901F40051A1
:10446000416107F0F5FE000706D4DAF8000007F016
:10447000EFFE00060DD437E0504600F081FADAF87E
:104480000000416901F00801416107F0E1FE00060A
:104490002AD50699886920F0800088619AF804007E
:1044A000022821D30AF515740AF11405012640F2F9
:1044B0007B2703E001362437864215D21AF807100D
:1044C0000129F7D106F00F00320600EBC00005EB22
:1044D000800158BF04EB8001DAF8000007F080FD8E
:1044E0009AF80400E6E700BFDAF8000007F0B0FE33
:1044F000C0024FD4DAF8000007F0AAFE8002069D41
:1045000040F180809AF8041002292AD305F5326020
:1045100001390AF51F72012306E000BF013900F1DD
:10452000200002F124021CD007681678012EF5D174
:10453000B7F1FF3FF2DCDAF8D46407F4803706F015
:104540000106B742EAD102F8013CAF6947F08007A3
:10455000AF616F693F06E1D40599486840F4007087
:104560004860DAF80000416901F40011416107F088
:104570006FFE40004CD55046FFF76AFADAF80000AB
:10458000416901F08041416107F062FE40077FF51B
:10459000A0AB44E09AF80400022827D306990AF158
:1045A000140401F512650AF13B064FF001080127DA
:1045B00006E000BF01372035874206F1240615D2F8
:1045C00029687278012AF5D1B1F1FF3FF2DC07F0DA
:1045D0000F0086F8008000EBC00004EB8001DAF8E1
:1045E000000007F0FDFC9AF80400E3E7DAF80000A9
:1045F000416901F48011416107F02AFE8002069DA5
:104600003FF580AFDAF8000007F022FE4000B2D498
:10461000DAF8000007F01CFE40077FF55AABDAF825
:1046200000004468610704D55046FFF72DFADAF818
:10463000000041682143416007B0BDE8F08F0000F1
:10464000D0F8E00406F0E0BAD0F8E00406F0F4BADE
:10465000002800F02781F0B581B0044690F8950459
:1046600028B9002084F89404204600F031F9032092
:1046700084F89504206807F01FFBD4E90001267C2C
:10468000D4E90223009606F047FF002840F0048199
:104690002068002107F038FE002840F0FD8094F8E3
:1046A00004E0BEF1000F00F0EE80BEF1040F0EF04A
:1046B000030C4FF0000241D30EF0FC03A4F1900074
:1046C00003250121EE1E80F8A460A0F8BE60AE1E96
:1046D00080F8C8606F1CA0F8E2606E1E80F8EC6085
:1046E0009F42A0F8066105F1040680F8A51080F845
:1046F000A820C0E92B22C0F8B42080F8C91080F8A7
:10470000CC20C0E93422C0F8D82080F8ED1080F821
:10471000F020C0E93D22C0F8FC2080F8111180F89B
:104720001051A0F82A51354680F81421C0E94622DC
:10473000C0F8202100F19000C4D1F21EBCF1000F9E
:1047400032D002EBC20104F114000123BCF1010FCD
:1047500000EB810500F821204FF000016B706A83A7
:104760002971C5E9021129611ED0551CBCF1020F47
:1047700005EBC50600EB860700F826507B707D83AD
:104780003971C7E9021139610ED0911C012501EB85
:10479000C10200EB820300F8221000205D705983F3
:1047A0001871C3E902001861BEF1000F6BD0BEF1B1
:1047B000040F4FF0000236D30EF0FC000323214615
:1047C000DF1E81F854729F1E81F878725F1E81F897
:1047D0009C725F1C1D1D81F85522874281F858226A
:1047E000C1E99722C1F8642281F8792281F87C22FC
:1047F000C1E9A022C1F8882281F89D2281F8A02277
:10480000C1E9A922C1F8AC2281F8C12281F8C032E5
:104810002B4681F8C422C1E9B222C1F8D02201F1AD
:104820009001CDD1EA1EBCF1000F2CD002EBC203E7
:1048300004F515700021BCF1010F00EB830700F8AF
:10484000232079703971C7E9021139611BD0531CDB
:10485000BCF1020F03EBC30700EB870600F827301B
:1048600071703171C6E9021131610CD0911C0027C1
:1048700001EBC10200EB820300F822105F701F7190
:10488000C3E902771F61D4E90001277CD4E9022340
:10489000009706F0B9FF38B1022084F89504012092
:1048A00001B0F0BD0120704700206074012084F841
:1048B0009504207B012802D12046FFF745F82068A7
:1048C00006F092FF002001B0F0BD000000000000E3
:1048D00010B5B0B002A9044601F10800B021FBF701
:1048E0006CFE00212068C4F20401884202D030B07E
:1048F00010BD00BF002003904FF4802002904FF4C1
:104900004010239002A800F007FA08B1FCF770F9F4
:1049100000F0BAF844F2D8400022C5F6020001685F
:1049200041F0007101600068062100F00070019004
:1049300001984D20FEF7C8FF4D20FEF7B1FF30B0C3
:1049400010BD00000000000010B50446C07928B179
:10495000022801D0FCF74CF9012100E00021D4F835
:10496000E00406F0F5F9D4F8E004BDE8104006F0E4
:10497000A3B9000000000000D0F8E00406F0CCB9B4
:10498000D0F8E00406F0D4B990F89424012A01D1BB
:104990000220704710B5012280F894244174044627
:1049A0000268104607F064FE002084F8940410BDED
:1049B000D0F8E02400F29C41104606F0E1B9000076
:1049C00010B5044690F89404012801D1022010BDCE
:1049D0002068012184F89414C168490606D5617BDA
:1049E000012903D1816B41F48031816307F080FBA1
:1049F000206806F0E9FE002084F8940410BD000051
:104A000010B50446D0F8E00406F016FA2068D0F895
:104A1000001E41F00101C0F8001EE07A002808BF26
:104A200010BD4EF61050CEF20000016841F00601B4
:104A3000016010BD00000000B0B544F60C05C5F6DD
:104A4000020529684907296806D401F00701081AF8
:104A500018BF0120B0BD00BF21F007010843286046
:104A6000FEF79AFE044600BF55F8080C800407D4F0
:104A7000FEF792FE001BB0F57A7FF5D90120B0BD9C
:104A80000020B0BD0000000044F60C00C5F6020096
:104A9000016841F080710160704700000000000073
:104AA00080B500F0A5FF44F220414EF63C22C5F649
:104AB0000201C0F600020968C1F30211515C01F065
:104AC0001F01C84080BD000080B544F2384EC5F6D5
:104AD000020E5EF8103C5EF8101C5EF80C2CC1F360
:104AE000053CDEF80410BCF1000F19D0C9089FED99
:104AF0003C1AD20601EAE27103F003026FF35F3160
:104B000000EE101AB8EE400ADFE802F0022210228E
:104B10005EF8381C89060DD49FED331A18E000BFEB
:104B200000218160C0E9001180BD00BF9FED2D1AFA
:104B30000EE000BF5EF8381C49F20002C0F2D0322D
:104B4000C1F3C10122FA01F101EE101AB8EE411AC7
:104B5000DEF800109FED253A6FF35F2102EE101A88
:104B6000DEF80010C1F34621B8EE422A013100EE12
:104B7000032A00EE10CAB7EE003AB8EE400A81EE02
:104B8000000A32EE031A20EE010A01EE101AB8EE06
:104B9000411A80EE011ABCEEC11A80ED001ADEF84F
:104BA0000010C1F30641013101EE101AB8EE411AAE
:104BB00080EE011ABCEEC11A80ED011ADEF8001079
:104BC000C1F30661013101EE101AB8EE411A80EE10
:104BD000010ABCEEC00A10EE101A816080BD00BF51
:104BE0000024744A001BB74B0024744C00000039A9
:104BF00080B544F2404EC5F6020E5EF8183C5EF8F1
:104C0000181C5EF8142CC1F3055CDEF80410BCF12E
:104C1000000F19D0C9089FED3C1AD20501EAE271D4
:104C200003F003026FF35F3100EE101AB8EE400A92
:104C3000DFE802F0022210225EF8401C89060DD443
:104C40009FED331A18E000BF00218160C0E9001118
:104C500080BD00BF9FED2D1A0EE000BF5EF8401C26
:104C600049F20002C0F2D032C1F3C10122FA01F1CF
:104C700001EE101AB8EE411ADEF800109FED253A49
:104C80006FF35F2102EE101ADEF80010C1F3462127
:104C9000B8EE422A013100EE032A00EE10CAB7EE48
:104CA000003AB8EE400A81EE000A32EE031A20EE16
:104CB000010A01EE101AB8EE411A80EE011ABCEE9C
:104CC000C11A80ED001ADEF80010C1F3064101316F
:104CD00001EE101AB8EE411A80EE011ABCEEC11AAC
:104CE00080ED011ADEF80010C1F30661013101EE1A
:104CF000101AB8EE411A80EE010ABCEEC00A10EE9E
:104D0000101A816080BD00BF0024744A001BB74B9D
:104D10000024744C000000392DE9F0470446C078A7
:104D200044F22C480007C5F6020828D5606E4FEA09
:104D3000305103292AD8DFE801F0030B131B00BF11
:104D4000D8F8001041F40031C8F8001010E000BF9E
:104D500004F10800022103F0ABFD064680B906E02D
:104D600004F12800022103F037FE064640B9606EC8
:104D7000D8F8241021F440110843C8F82400002674
:104D80006078C00706D135462FE000BF0126607865
:104D9000C007F8D0A06D04283ED83546DFE800F003
:104DA00004140E0B0B0000BFD8F80000354640F489
:104DB0000030C8F800002F46C5B90DE004F1280006
:104DC000002103F009FE04E004F10800002103F0D3
:104DD0006FFD05462F464DB9D8F82400A16D20F08F
:104DE000070000250843C8F82400374660784007CC
:104DF0003AD5D4F8A4004FEA7050052818D8DFE857
:104E000000F0031D11232323D8F8000040F40030E4
:104E1000C8F8000018E000BF0125012760784007AE
:104E2000E7D421E004F12800002103F0D5FD0AE0D9
:104E300001250126607800071AD44FE004F108002C
:104E4000002103F035FD05462E461DB160780007B0
:104E50000ED443E0D8F82C00D4F8A41020F460005D
:104E600000250843C8F82C003E466078000735D579
:104E7000D4F8A8004FEA3060052813D8DFE800F026
:104E800004180C1E1E1E00BFD8F8000040F40030AD
:104E9000C8F8000012E000BF04F12800002103F070
:104EA0009BFD0AE001250127E07880071AD434E051
:104EB00004F10800002103F0FBFC05462F461DB15C
:104EC000E07880070ED428E0D8F82C00D4F8A81099
:104ED00020F0E06000250843C8F82C003746E07851
:104EE00080071AD5E06C4FEA3010032838D8DFE885
:104EF00000F009032D0900BFD8F8000040F400308D
:104F0000C8F800002E464DB9D8F82000E16C20F01A
:104F1000300000250843C8F820003E466078C006EF
:104F200039D5E06D4FEA3030042847D8DFE800F08B
:104F300004221C0A0A0000BFD8F8000040F4003028
:104F4000C8F800002F463DBB1CE000BF04F108007C
:104F5000022103F0ADFC0546002D2E46DED1D3E73D
:104F600001250126DAE700BF04F12800002103F043
:104F700033FD04E004F10800002103F099FC05462C
:104F80002F464DB9D8F82400E16D20F4E04000250B
:104F90000843C8F8240037466078800635D5206E6F
:104FA0004FEA3040052815D8DFE800F0041A0E0457
:104FB000040400BF2E46DDB91EE000BF0125012715
:104FC00060788006EBD420E004F12800012103F092
:104FD00003FD0AE0012501266078400619D449E066
:104FE00004F10800012103F063FC05462E461DB1C3
:104FF000607840060DD43DE0D8F82400216E20F4FE
:10500000E02000250843C8F824003E4660784006AA
:1050100030D5D4F8AC004FEA307005280ED8DFE860
:1050200000F00313070303032F46ADB918E000BFD8
:1050300004F12800012103F0CFFC0AE0012501273B
:10504000607800061AD43CE004F10800012103F066
:105050002FFC05462F461DB1607800060ED430E0C7
:10506000D8F82C00D4F8AC1020F0E040002508431C
:10507000C8F82C0037466078000622D5E06E58B19B
:10508000B0F1005F0CD0B0F1805F37D1D8F80000EC
:1050900040F40030C8F800002E469DB908E000BF7B
:1050A00004F10800012103F003FC05462E464DB92A
:1050B000D8F82400E16E20F0405000250843C8F8DD
:1050C00024003E46E078C0071DD0A06C032855D8C8
:1050D000DFE800F008024A08D8F8000040F4003089
:1050E000C8F80000A9467DB9D8F82000A16C20F0CE
:1050F000030000250843C8F8200004E0012501262C
:10510000E078C007E1D1B146A078400602D44F460E
:1051100018E000BFD8F8D40340F48070C8F8D40376
:10512000FEF73AFB064600BFD8F8D403C00507D403
:10513000FEF732FB801B6428F6D90325032701E024
:105140002F46FDB12078C00700F06F80A06F4FEAB6
:10515000F00005284ED8DFE800F0035347030303AF
:10516000002D2E4654D157E004F10800022103F02F
:105170009FFB0546002DA946C6D1B5E701254FF096
:105180000109C1E7D8F84410D4F8B000414011F447
:10519000407F11D0D8F84410D8F8442042F480322F
:1051A000C8F84420D8F8442021F4407122F4803219
:1051B000C8F84420C8F84410B0F5807F40F0D08291
:1051C000FEF7EAFA064641F2883A0325032700BFB4
:1051D000D8F84400800700F1C182FEF7DDFA801B99
:1051E0005045F5D9AEE700BF04F12800012103F0D6
:1051F000F3FB0AE0012501262078800719D446E058
:1052000004F10800012103F053FB05462E461DB1B1
:10521000207880070DD43AE0D8F82800A16F20F05C
:10522000380000250843C8F828003E46207880074B
:105230002DD5606F05280FD8DFE800F004140804AE
:10524000040400BF2F46ADB918E000BF04F12800E8
:10525000012103F0C1FB0AE0012501272078400766
:1052600019D447E004F10800012103F021FB0546B1
:105270002F461DB1207840070DD43BE0D8F8280018
:10528000616F20F0070000250843C8F82800374662
:10529000207840072ED5D4F8900005280ED8DFE8F6
:1052A00000F00313070303032E46ADB918E000BF57
:1052B00004F12800012103F08FFB0AE001250126FB
:1052C000207880061AD44BE004F10800012103F095
:1052D000EFFA05462E461DB1207880060ED43FE039
:1052E000D8F82C00D4F8901020F0070000250843CF
:1052F000C8F82C003E462078800631D5D4F88C00C2
:105300004FEA307005280FD8DFE800F004140804D5
:10531000040400BF2F46ADB918E000BF04F1280017
:10532000022103F059FB0AE00125012720784006FD
:105330001AD44BE004F10800002103F0B9FA054645
:105340002F461DB1207840060ED43FE0D8F8280043
:10535000D4F88C1020F0E04000250843C8F828005D
:1053600037462078400631D5D4F898004FEAB0206F
:1053700005280FD8DFE800F004140804040400BF77
:105380002E46ADB918E000BF04F12800022103F059
:1053900023FB0AE001250126207800061AD44EE0FE
:1053A00004F10800002103F083FA05462E461DB1E2
:1053B000207800060ED442E0D8F82C00D4F89810DB
:1053C00020F4E05000250843C8F82C003E46207821
:1053D000000634D5D4F89C004FEA7030052815D863
:1053E000DFE800F0041A0E04040400BF2F46E5B104
:1053F0002068010727D4C1063ED4000355D477E0C6
:1054000004F12800022103F0E7FA0AE00125012750
:1054100020680107EFD516E004F10800002103F031
:1054200047FA0546002D2F46E2D1D8F82C00D4F8D3
:105430009C1020F4604000250843C8F82C00374633
:1054400020680107D7D5D4F88000B0F5805F09D176
:1054500004F12800022103F0BFFA002818BF012739
:10546000D4F88000D8F8281021F440510843C8F837
:1054700028002068C106C0D5D4F89400B0F5807F1C
:1054800009D104F12800022103F0A6FA002818BF70
:105490000127D4F89400D8F82C1021F44071084367
:1054A000C8F82C002068000322D5D4F8A000B0F57D
:1054B000003F11D0B0F5803F08D0002844D104F15E
:1054C0000800002103F0F4F905E000BF04F1280012
:1054D000022103F081FA05462E4655B9D8F82C0072
:1054E000D4F8A01020F4403000250843C8F82C0060
:1054F0003E46A07840072CD5D4F88400B0F5401F74
:105500000BD0B0F5001F0BD0B0F5801F2AD1D8F812
:10551000000040F40030C8F800002F46D5B907E07D
:1055200004F12800012103F057FA05462F468DB9F2
:10553000D8F82800D4F8841020F44010002508433F
:10554000C8F8280005E000BF01250126A078400723
:10555000D2D43746A078C00709D13E4621688800DA
:1055600015D532E001250127A078C007F5D0206DC0
:10557000B0F5803F10D018BBD8F8000040F40030E0
:10558000C8F800002E4685B1216888001DD46068E7
:105590008A0326D465E000BF04F10800022103F06D
:1055A00087F90546002D2E46EED1D8F82000216D52
:1055B00020F4803000250843C8F82000CDE700BF64
:1055C0000125012621688800E1D504F12800022187
:1055D00003F002FA002818BF0126D4E900108A035C
:1055E0003FD5E26F6FF0010303EB3223022B0BD3A5
:1055F0004FEA322343B1012B40F0AA80D8F80030A3
:1056000043F40033C8F8003025B3CA022CD48A0210
:1056100034D44A003CD4CA0F49D1090251D4C1073D
:105620005AD1810763D441076CD4010776D4C106EF
:1056300000F18080800607D504F12800022103F0E4
:10564000CBF9002818BF0125002D18BF01252846D9
:10565000BDE8F087D8F8283023F440731A43C8F81F
:1056600028203546CA02D2D5D8F82420236F22F04C
:1056700000421A43C8F824208A02CAD5D8F8242048
:10568000A36E22F080721A43C8F824204A00C2D5C3
:1056900058F81C2C22F4004248F81C2CD4F8B420F2
:1056A00058F81C3C1A4348F81C2CCA0FB5D0D8F83F
:1056B0002020636D22F040521A43C8F820200902CE
:1056C000ADD5D8F82810D4F8882021F44001114332
:1056D000C8F82810C107A4D004F10800002103F085
:1056E000E7F8002818BF0546606881079BD504F1DC
:1056F0000800012103F0DCF8002818BF05466068A7
:10570000410792D504F10800022103F0D1F80028E6
:1057100018BF0546606801077FF589AF04F12800CE
:10572000002103F059F9002818BF05466068C1063A
:105730007FF580AF04F12800012103F04DF9002826
:1057400018BF0546606880063FF576AF7CE700BF6E
:105750000125CA027FF55BAF86E700BFD4F8B00031
:105760004FF6CF7358F81C2CC0F2FF0300F44071C1
:1057700022F47C5203EA10136FF31F30B1F5407F1F
:1057800008BF1A43002548F81C2CD8F844100843D9
:10579000C8F84400FFF7BBBC2DE9F04381B00028F6
:1057A00000F0208142F200090446C5F20029D9F830
:1057B000000000F00F0081420DD9D9F8000020F060
:1057C0000F000843C9F80000D9F8000000F00F00EE
:1057D000884240F00781206844F218464207C5F627
:1057E00002060AD52269336803F070039A4204D98D
:1057F000336823F070031A43326002070AD56269E6
:10580000736803F070039A4204D9736823F070033D
:105810001A437260C2060AD5A269736803F4E06392
:105820009A4204D9736823F4E0631A4372608206D3
:105830000AD5E269B36803F070039A4204D9B368E9
:1058400023F070031A43B26010F002020AD0E3683A
:10585000376807F00F07BB4204D9376827F00F07F6
:105860003B433360C3073FD0306820F47062D4E913
:1058700001031A433260012856F8182C0AD0032875
:1058800004D002280AD192030BD4ABE0920108D4D1
:10589000A8E000BFD20504D4A4E000BF520740F145
:1058A000A180884656F8081C21F00701084346F8F5
:1058B000080CFDF771FF054641F2883756F8080CD1
:1058C000616800F03800B0EBC10F09D0FDF764FF4C
:1058D000401BB842F2D9032001B0BDE8F08300BFFD
:1058E0002068414600F0020252B1E268336803F0DA
:1058F0000F039A4204D2336823F00F031A43326035
:10590000D9F8002002F00F0291420CD2D9F8002001
:1059100022F00F020A43C9F80020D9F8002002F053
:105920000F028A425ED141070AD52169326802F02E
:105930007002914204D2326822F070021143316049
:1059400001070AD56169726802F07002914204D2BF
:10595000726822F0700211437160C1060AD5A16914
:10596000726802F4E062914204D2726822F4E0624A
:105970001143716080060AD5E069B16801F07001D9
:10598000884204D2B16821F070010843B06000F091
:10599000B7F831684EF63C22C0F60002C1F303218D
:1059A000515C336803F00F0301F01F01D25C20FA51
:1059B00001F102F01F0040F20C02C2F2004221FA93
:1059C00000F0106040F2040040F20802C2F2004011
:1059D000C2F200420068116001B0BDE8F043FDF77B
:1059E00027BF00BF012001B0BDE8F0830000000028
:1059F00080B500F085F844F218414EF63C23C5F618
:105A00000201C0F600030A68C2F303229A5C096827
:105A100001F00F0102F01F02595C20FA02F201F0BE
:105A20001F0040F20C01C2F2004122FA00F00860AF
:105A300040F20801C2F200410A6080BD000000008F
:105A400080B500F05DF844F2184C4EF63C23C5F6E4
:105A5000020CC0F60003DCF80020C2F303229A5CBB
:105A6000DCF8001001F00F0102F01F02595CD04079
:105A700040F20C02C2F2004201F01F0120FA01F1D3
:105A8000116040F20802C2F200421060DCF804002B
:105A9000C0F30210185C00F01F0021FA00F080BD76
:105AA00080B500F02DF844F2184C4EF63C23C5F6B4
:105AB000020CC0F60003DCF80020C2F303229A5C5B
:105AC000DCF8001001F00F0102F01F02595CD04019
:105AD00040F20C02C2F2004201F01F0120FA01F173
